:1008000048080020A11F00005D0E0000590E0000E6
:1008100000000000000000000000000000000000D8
:100820000000000000000000000000009D1F00000C
:1008300000000000000000009D1F0000190D0000D6
:100840009D1F00009D1F00009D1F00009D1F0000B8
:100850009D1F00009D1F00009D1F0000751E0000D1
:100860009D1F00009D1F0000311000009D1F000013
:100870009D1F00009D1F00009D1F00009D1F000088
:100880009D1F00009D1F00009D1F000010B5064C1D
:100890002378002B07D1054B002B02D0044800E041
:1008A00000BF0123237010BD6C0000200000000079
:1008B00018230000044B10B5002B03D00349044853
:1008C00000E000BF10BDC046000000007000002026
:1008D00018230000F0B5DE4657464E464546E0B5C3
:1008E0008C4611009A460204130C9B460B041B0C09
:1008F00099465A4653431C000025030C98460B0C9E
:10090000002642465A43170036196F414A4644466C
:100910006243150C140436196F415A4653431D0C9B
:100920001C0436196F41002463464B431D00A41973
:100930007D410022514641430B0012196B411000CA
:1009400019003CBC90469946A246AB46F0BD00005B
:10095000F0B5C64600B582B00600020000230021B3
:10096000184CA046A04704000D0032000023C047E9
:10097000154A0023C047009100230193134A002326
:1009800020002900C0470B03040D1C430D0D104A25
:10099000002330000021C047844688056646B20A1D
:1009A00002438B0A00980199241A8D41A41A9D4193
:1009B000084800210019694100B202B004BC904609
:1009C000F0BDC046D5080000B20500006509000072
:1009D000ED1C000052290000F0B5C64600B582B0FB
:1009E0000600020000230021184CA046A047040086
:1009F0000D0032000023C047154A0023C047009174
:100A000000230193134A002320002900C0470B0351
:100A1000040D1C430D0D104A002330000021C04777
:100A2000844688056646B20A02438B0A009E019FEF
:100A3000B6185F41361BAF41084801214942801971
:100A4000794100B202B004BC9046F0BDD508000068
:100A5000D907000009170000776900004082FFFFF6
:100A600010B52D4B4E201A5C01210A431A54013057
:100A70001A5C0A431A5418381C5C0F2222401024B6
:100A800022431A54254A106A80235B0003431362F1
:100A9000234A13780B431370214B5B7EDB09FBD198
:100AA0001F4B5A780F218A43022002435A709A78CA
:100AB0008A4304210A439A70997870229143202036
:100AC00001439970DA783F218A430243DA70E222C7
:100AD000D2009A80124B5B7EDB09FBD1104B114A8E
:100AE0001A610F4B5B7EDB09FBD10D4A13780221A3
:100AF0000B4313700A4B5B7EDB09FBD1084A137B67
:100B000002210B431373064B1B7EDB07FBD5044B03
:100B100001221A7610BDC046004400410004004086
:100B2000002000420718000F044B0343044A1361DE
:100B3000034B5B7EDB09FBD17047C0460018000FFA
:100B400000200042064A137B02210B431373044B1F
:100B50001B7EDB07FBD5024B588B80B27047C0462B
:100B600000200042F0B5D6464F464646C0B5814605
:100B7000884617009A4607200E4EB0470E4CA047F5
:100B800005000620B047A0470400A80880B20B4B20
:100B900098474B461880A00880B2094B98474346B7
:100BA00018803D8053461C8000201CBC904699460E
:100BB000A246F0BD290B0000450B0000D90900003A
:100BC0005109000010B5464A53681E218B431C3959
:100BD0000B435360434BDB68DB06FBD5414B912253
:100BE00052009A843F4BDB68DB06FBD53D4B9A6A8B
:100BF0003D491140C022D2010A439A623B493C4A16
:100C00001143C022D2050A43DA62364BDB68DB06A9
:100C1000FBD5344A938C04210B439384E022D20009
:100C200080235B021A4380239B021343314A5360A3
:100C3000304B5B78DB09FBD106228023DB011343B9
:100C40002C4A53802B4B5B78DB09FBD10433C0214A
:100C50004901194327488160E022D20013438022D2
:100C600052021A4380239B021A4380231B0313431F
:100C70004360204B5B78DB09FBD10F228023DB0034
:100C80001A438023DB0113431A4A5380194B5B78C4
:100C9000DB09FBD113228023DB001A438023DB0115
:100CA0001343144A5380134B5B78DB09FBD1124A80
:100CB000137253729372D37210490B60104A4A60D8
:100CC000104C226A1202120AC0200006024322625D
:100CD0008B6007330B600C4B802212061A6010BD2C
:100CE0000040004100080040FF03FFFF80BB000000
:100CF0000000FF01000C00400004004010E000E094
:100D00007FBB000000ED00E000E100E0014B18684F
:100D10007047C04678010020024A1368013313600F
:100D20007047C0467801002070B50500044B984715
:100D30000400034B9847001BA842FAD370BDC0467D
:100D40000D0D0000002809D1002903D00A4B102204
:100D50009A6105E0084B10225A6101E0012800D099
:100D60007047002903D0044B20229A61F8E7024B18
:100D700020225A61F4E7C04600440041014B302272
:100D80009A6070470044004110B5C2B0244B9847A8
:100D9000244B9847244B9847244BC02212049A6056
:100DA00056215A5C022002435A54214B9847214B4A
:100DB0009847214B9847214B984704001F4B984771
:100DC000001B6328FAD91E4B98471C4B9847040018
:100DD0001A4B9847001B6328FAD901A8194B98476A
:100DE000194B98476420194B9847144B98470400B7
:100DF00006E0124B984704001A2101A8144B9847AB
:100E00000A206844134B984701AB988016215A5E1C
:100E10000132DA82094B9847001B6328FAD9E8E7C8
:100E20005D200000C50B00007D0D00000044004166
:100E3000090F0000A11A0000A11D00000D0D000007
:100E400009150000790E0000A50E0000290D000014
:100E500079150000BD0E0000FEE70000044B0122E2
:100E60005A70044AD37801210B43D3707047C046AF
:100E70008800002000180040094B18600922827089
:100E8000083AC2701A680A21117051701B680B224F
:100E90001A765A7600229A75DA7500207047C04695
:100EA0007C01002010B5024B9847C0B210BDC0466F
:100EB000610A000000487047F0200000F0B587B0DC
:100EC000040012256D4405AE04AB2A003100162043
:100ED00068440A4FB84701AB9C46094B624683CB36
:100EE00083C20022B35E23802B886380201D0C22E6
:100EF0006146044B9847082007B0F0BD650B000021
:100F0000E4200000B520000070B5364B80221204AA
:100F10005A619A60122304E0324B80221204DA6094
:100F20002B005D1EEDB2002B08D02F4B984704001C
:100F30002D4B9847001B0428FAD9EDE72B4A116A7C
:100F400008330B431362274B5622995C012001435F
:100F5000995457215A5C02435A543B2235399954CB
:100F6000234A116801230B431360214BDB69DB0724
:100F7000FBD41F4B14221A600C32DA6019681E3A37
:100F80000A431A601A4BDB699B07FBD4184B5B8B37
:100F90009B069B0F02D1164B10225A83144BDB6920
:100FA0005B07FBD4124B9A7D01210A439A759A7D07
:100FB00002210A439A75997D802252420A439A750A
:100FC0000C4B8022D2001A60C22080001A580A49B5
:100FD00011408022D2030A431A500122074B1A7093
:100FE00070BDC046004400410D0D000000040040EB
:100FF000000C004200E100E0FFFF00FF2C01002098
:10100000094B5B6800280AD0084A134009041943B9
:10101000054B5960044BDB695B07FBD470478022AA
:10102000D2021343F2E7C046000C0042FFFFFBFF71
:10103000F8B5844B1C7EE4B25D8BEDB26BB2002B35
:1010400040DAE3070DD5804B1B78DBB2022B43D08F
:10105000042B74D0032100207C4B98477A4B01224B
:101060001A70A30700D4EAE0774B1B78DBB2032B9E
:1010700000D1A0E0052B00D0DAE0734B27229A5C68
:10108000D2B228215B5CDBB29A4200D38FE06E4B78
:1010900027255A5D28206B49095CC9B29A182C266D
:1010A00091555A5DD2B21B5C013B9A4277D0022126
:1010B0000120664B9847644927228B5C0133DBB2E1
:1010C0008B54BCE0604B01221A70032100205F4B5F
:1010D00098475C4B1C76B4E07B232A009A43802A15
:1010E00005D06B0722D4584B01221A70B9E7564B32
:1010F00004221A7021329B5C002B0DD0524A24210D
:10110000535CD3181B79DBB24E4E28203354535C0A
:101110000133DBB25354A4E74B4E01272633F75477
:1011200003210020494B98473770E7E7032100204F
:10113000464B9847444A26230021D154D3E77B23CA
:101140002A009A43802A8CD13F4B24229A5CD2B247
:1011500025215B5CDBB29A420DD23B4A0139535CDC
:10116000D3181B79DBB2374E28203354535C01333C
:10117000DBB2535475E7344B5B78002B07D0012169
:101180000020324B9847304B06221A7069E7032142
:1011900000202E4B98472C4B01221A7061E7032147
:1011A00000202A4B9847284B01221A7047E0264B13
:1011B00001221A7043E07B239D43802D2ED1224BC8
:1011C00027229A5CD2B228215B5C013B9A4214DA56
:1011D0001D4D2726AB5D1B4928228A5CD2B2EB1835
:1011E0002C215A542A390120184B9847AB5D013302
:1011F000DBB2AB5505232B7021E0134D2723EB5CAD
:10120000104928228A5CD2B2EB182C215A54293971
:1012100000200E4B984701232B7010E00321002083
:101220000A4B9847084B012226215A541A7006E0AF
:1012300003210020054B9847034B01221A70014BF4
:101240001C76F8BD000C00422C01002001100000AB
:1012500010B582B043786A460021D171032B13D0B8
:10126000052B18D0002B01D002B010BD0E4A1389F7
:1012700001210B4313810D4B0D4A5A800D4A1378FF
:1012800002210B431370FEE7012306220A49802046
:101290000A4CA047E8E70123012269460731802074
:1012A000064CA047E0E7C04600500041000C00405B
:1012B000034000000010004000000020D51C00008A
:1012C000024B1A0008320260187A704700000020B2
:1012D000014B0360B22070470C21000010B51400D0
:1012E000022836D007D9032812D00F280DD1392073
:1012F0001A4B783307E0012803D11220174B04332F
:1013000001E000200023236010BD00200023FAE745
:10131000042917D88900124B5B589F461148124B7D
:101320009847030013E0114B98470F4B9847030071
:101330000DE00F4B9847030009E00E480A4B984711
:10134000030004E0002313600020DDE7034B18785E
:10135000D9E76020014B1833D5E7C046D4210000FF
:10136000C021000088220000111A0000B50E000004
:10137000391F0000942200007047000010B50128BA
:1013800001D9002010BD024B98470120FAE7C04662
:101390000915000010B5034B98470020024B9847F1
:1013A00010BDC046CD1D0000151E000010B5002068
:1013B000014B984710BDC046151E000010B5034BE9
:1013C00098470020024B984710BDC046CD1D000035
:1013D000151E000010B5034B98470020024B98479C
:1013E00010BDC046CD1D0000151E000010B5044BF9
:1013F00000221A70034B98470020034B984710BDFA
:10140000B4030020CD1D0000151E000010B5184BC0
:101410001B78DB0629D1164B5B78BB2B1FD006D976
:10142000BC2B1FD0BD2B20D1124B98471FE0102B97
:1014300009D0302B19D10E4B1A795879000210437C
:101440000D4B984713E00A4B9A78D978090211435B
:101450001A79587900021043084B984707E0084B67
:10146000984704E0074B984701E0074B984710BDA9
:10147000FC030020D5130000AD13000095130000FD
:10148000BD130000ED130000651E0000704770479B
:1014900010B504200A4B9847002805D18420084B3A
:1014A0009847002806D110BD0420064B9847064BEC
:1014B0009847F3E78420034B9847044B9847F2E79B
:1014C000351D00006D1D000049150000C11500000C
:1014D00001280CD003B2002B05D002280BD1002923
:1014E0000BD0002008E0002909D0002004E00029EA
:1014F00007D0002000E0002070470120FCE7012019
:10150000FAE70120F8E7000010B508220321832044
:10151000094CA047402202210420A047402202217A
:101520008420A047402205490420054B9847054BDD
:1015300000221A7010BDC0467D1B000074030020FD
:10154000851C0000D402002010B540220849042068
:10155000084B9847002300E001333E2B07D8044A8C
:10156000D25C0A2AF8D15A1C01498A5CF4E710BD02
:1015700074030020851C000070B50E4B1B78002BF7
:1015800014D13F2914D88B4205D2C55C0A4CE554CE
:1015900001339BB2F7E700230A0007498420074C78
:1015A000A047044B01221A70002070BD0120FCE707
:1015B0000120FAE7D4020020F4020020D51C00002C
:1015C000014B00221A707047D402002010B5C307E7
:1015D00004D501210120044B984710BD00210120B2
:1015E000014B9847F9E7C046450D000070B5114B17
:1015F0001C88402C00D9402426000F4D0F4B196841
:10160000220028000E4B984700232200290080204A
:101610000C4DA847002C09D0064A13881C1B1480C7
:10162000064A13689C466644166070BD064B984790
:10163000F2E7C046F6030020B4030020F8030020C0
:10164000B5200000D51C0000CD1D000010B5044BD6
:101650001B7860221A4200D110BD024B9847FBE76D
:10166000FC0300208F14000010B5124B1A78602381
:10167000134010D10F4B5B78052B02D0062B07D0FF
:1016800010BD0C4B9B787F2018400B4B9847F7E719
:101690000A4B9847F4E7402B09D1064A1179537950
:1016A0001B020B43072BEBD1044B9847E8E7044B95
:1016B0009847E5E7FC030020691B0000ED150000DA
:1016C0008D14000030B583B00023019301A8124BA4
:1016D00098470400114A9179D3791B020B43984231
:1016E00000D31C003F2C0FD80D4D2200019928007B
:1016F0000C4B984701232200290080200A4CA04768
:101700000A4B984703B030BD094B1C80094B019A26
:101710001A60094B9847F3E7D1120000FC03002040
:10172000B4030020B5200000D51C0000CD1D000032
:10173000F6030020F8030020ED15000030B583B05B
:101740009E4B1A786023134000D082E09B4B5B785D
:101750000B2B7BD89B009A4AD3589F46994B00226B
:101760001A705A700220984B9847984B984777E028
:101770000020954B9847954B984771E00020924B7D
:101780009847924B98476BE08C4B9A78D97809022E
:101790001143080AC9B20023019301AA8C4B984750
:1017A00000281DD0019900291AD0844CA579E2792E
:1017B00012022A43824200D30200824B994206D091
:1017C000844B1A80844B1960844B984748E0814BC6
:1017D0000021198001237B498020814CA0473FE0F4
:1017E000804B98473CE0804B1A78764B1A7001206A
:1017F000754B9847754B984732E0704B98787B4B08
:101800009847002809D000206F4B98476B4B9A7877
:10181000754B1A706D4B984722E0724B98471FE04A
:10182000664B9A78D978090211431A7958790002DF
:1018300010436F4B9847002805D00020624B984713
:10184000624B98470CE0674B984709E0654B984717
:1018500006E0202B06D0402B00D16AE0654B98476C
:1018600003B030BD554B19791F231A40012A04D00B
:10187000022AF3D15B4B9847F2E702290ED00029E8
:10188000ECD14E4B5B78212B1CD0202B1DD0222B72
:101890003BD0232B47D0534B9847E1E74748564B63
:1018A00098474A4B9847DBE710784649C8540132BD
:1018B00001339BB2062BF7D90720434B9847434B84
:1018C0009847CDE74D4A0023F4E73C4A9179D37914
:1018D0001B020B4305D100203B4B98473B4B9847DD
:1018E000BEE74648002335498C79CA791202224363
:1018F0009A42F0D91A00083241498A5C02700130DC
:10190000062BE8D801339BB2EDE72C4B9A783B4B82
:10191000DA71D879C0B23B4B984700202A4B9847E0
:101920002A4B98479CE70020274B9847274B98471E
:1019300096E7224B5B78122B11D0132B3BD11F4A19
:10194000117953791B020B43022B34D19178D37850
:101950001B020B43012B0CD0224B98477EE7174903
:1019600008794A7912020243072AE6D1264B9847A2
:1019700076E70023019301A8244B98470F4B9A79EF
:10198000D97909021143814200D30100402900D9CD
:101990004021002307E0019A14780A48C454013218
:1019A000019201339BB29942F5D8C8B2064B9847D1
:1019B000064B984754E70B4B984751E7FC03002030
:1019C000A4220000B4030020151E0000CD1D00005D
:1019D000DD120000F6030020F8030020ED150000E2
:1019E000D51C0000651E0000F40300207D130000DC
:1019F000D11400000D14000051120000200000203E
:101A000004040020CD150000C5160000C11200001E
:101A100070B505000B4B984780B21F2800D91F20D6
:101A2000094A431C5B001370032353700023984240
:101A300006DDE95C5C00044A121951800133F6E7C7
:101A4000014870BDD7200000B403002010B50F4B33
:101A50000F4A1A6058680F4C2040C02292050100BE
:101A6000114359600C491961596921400A435A616F
:101A70005969802212060A435A61084B0A22FF3232
:101A800010219954093A0131995410BD14020020D3
:101A900004040020FFFFFF8FB4030020005000412A
:101AA00070B5274AD36920210B43D361254B264AC1
:101AB0005A80264B01221A70244B9B78DB07FBD4FB
:101AC000224B02221A70214B9B789B07FBD4204BA0
:101AD0001A68510B1F230B401F2B2AD0910C1F207B
:101AE00008401F2827D0D10D07220A40072A24D0FA
:101AF0009B01034312031343144C2385154B1A789F
:101B00005201154D00212800144B984765620823A7
:101B10002383134B5822995C012001439954592186
:101B20005A5C02435A543C220D3199540D4B98474C
:101B300070BD1A3BD2E70238D5E7043AD8E7C04671
:101B400000040040000C004006400000005000412E
:101B5000246080008522000014020020C7200000BD
:101B6000004400414D1A000080235B421843C0B27C
:101B7000014B98727047C0460050004130B543B2E7
:101B8000002B13DB082A4ED9102A69D9202A69D9DB
:101B9000402A69D9802A69D980235B009A4267D993
:101BA0000133FF339A4265D806223DE0082A11D955
:101BB000102A2CD9202A2CD9402A2CD9802A2CD979
:101BC00080235B009A422AD90133FF339A4228D8F6
:101BD000062200E000223F2318404401264B1B1937
:101BE0005C691207254D2C4022435A614C1C244A43
:101BF00008304001815C072323401B017024A1436E
:101C00001943815494466044A223037127E00122C2
:101C1000E1E70222DFE70322DDE70422DBE705221A
:101C2000D9E70722D7E700223F2318404301124C8F
:101C3000E41865681307114A15402B4363604B1C79
:101C40000F4C08304001015D0722134091431943B6
:101C50000155A4466044402343712F3B037130BDBE
:101C60000122E1E70222DFE70322DDE70422DBE7CE
:101C70000522D9E70722D7E714020020FFFFFF8FD4
:101C800000500041F0B50F4E4301F418656892040E
:101C900012090D4F3D402A4362606268920B950322
:101CA0006560995108304001084A94466044052215
:101CB000C271074A9446634401221A70402303719B
:101CC0000020F0BD14020020FF3F00F00050004152
:101CD00009510041F0B53F2420404501114E7619CD
:101CE0007769DB077F007F083B43736177690E4BA1
:101CF0003B40736173699204920C9B0B9B031A43E4
:101D00007261316108304001084B9C4660440A23EF
:101D1000C371074B9C46654402232B707E3343718D
:101D20000020F0BD14020020FF3F00F000500041F1
:101D30000951004143B2002B0ADB3F230340083323
:101D40005B01094A94466344D879C007C00F7047C5
:101D50003F22024008325201034B9C466244D07934
:101D60008007C00FF3E7C0460050004143B2002B8C
:101D700009DB3F23034008335B01084A9446634470
:101D80000122DA7170473F22024008325201034BB0
:101D90009C4662440223D371F4E7C04600500041E0
:101DA000084A8023136008490B89012083430B8173
:101DB000C120800013581B021B0AC02109060B43D7
:101DC0001350704700E100E0005000410D4B59688E
:101DD0000D4A1140802252030A435A605A68920BFE
:101DE00091035960094A1A60094B0822FF32052104
:101DF00099540A22FF3204399954053A3F319954D3
:101E00007047C04614020020FF3F00F00404002089
:101E1000005000410F4B5969802212060A435A6153
:101E200059690D4A0A405A615A69920B920310434C
:101E300058610A4A1A610A4B0822FF320A21995452
:101E40000A22FF32083999540622FF327E31995412
:101E50007047C04614020020FF3F00F0B40300208A
:101E600000500041024A0623FF333021D15470470D
:101E70000050004170B5244A138C9BB21C00928B19
:101E8000120710D4DB070CD51F4A0823FF33D55C9B
:101E9000EDB21321D154EB060DD4EB0713D4AB07ED
:101EA00014D4012316E0184B08229A83174B984745
:101EB000174B984726E0082216491748174B9847B2
:101EC000174B9847E9E7174B9847E8E7164B9847B1
:101ED000E7E70133154A12789A4211DD01229A4050
:101EE0001442F6D01A000832520107498C46624467
:101EF000D179C9B25A010E48844662441170E8E7AC
:101F00000C4B984770BDC046005000414D1A000070
:101F10007913000004040020FC030020B520000019
:101F20003D1700004D1600006916000085220000D4
:101F3000085100419114000030B589B000241CE024
:101F4000A1000919CD170722100028404018C01021
:101F50006D0F4B1913405B1B0C4A825C1A410C49F4
:101F6000415C0820C31A99400B0013431F22134001
:101F7000084AD25C01AB1A550134192CE0DD01A8E6
:101F800000238376044B984709B030BD0CA0800035
:101F90000DA08000D4220000111A0000FEE700000E
:101FA000F8B5214A214B9A4207D0204B1E4A01E046
:101FB00002CA02C31E498B42FAD31E4B01E0002223
:101FC00004C31D4A9342FAD31C4BFF2293431C4A7D
:101FD00093601C4A90235B000221D1501A4AD378A7
:101FE0000325AB4302242343D370D3780C27BB4390
:101FF00008263343D370154B987B30229043202220
:1020000010439873997BB943314399739A7BAA43E0
:1020100022439A730E4A516880230B4353600D4B41
:1020200098470D4B9847FEE718230000000000205A
:102030006C0000206C000020440400200008000018
:1020400000ED00E0007000410050004100480041F8
:10205000004000416D200000890D0000014B024A44
:102060001A6070476800002040420F0070B50026DB
:102070000C4D0D4C641BA410A64209D1002600F0A3
:102080003BF90A4D0A4C641BA410A64205D170BD51
:10209000B300EB5898470136EEE7B300EB5898478A
:1020A0000136F2E7042300000423000004230000AB
:1020B00008230000002310B59A4200D110BDCC5C6B
:1020C000C4540133F8E703001218934200D170475B
:1020D00019700133F9E70023C25C0133002AFBD1F8
:1020E000581E704793719CBEB7D7AA3D837BEAC345
:1020F0004B697772696F75732054656D7065726195
:10210000747572652053656E736F72000A0000006B
:1021100000000306B200080001000000A80008004B
:1021200002000200A0001400030057494E5553421C
:102130000000000000000000000084000400070010
:102140002A004400650076006900630065004900CC
:102150006E00740065007200660061006300650037
:1021600047005500490044007300000050007B0008
:102170003100350062004600370030003200420076
:102180002D0032003500390038002D0034003600B3
:10219000440033002D0038003700380045002D0082
:1021A000430042004500360035003400460043003D
:1021B00035004200430036007D00000000000000B2
:1021C0004C1300001C130000261300003213000003
:1021D0003A1300000403090412011002EF02014047
:1021E000D80419EC17010102030100000902600084
:1021F00003010080FA080B0002020200000904003B
:10220000000102020000052400100104240202055E
:1022100024060001070583030800FF0904010002EA
:102220000A0000000705040240000507058402407B
:102230000005080B0201FE0101040904020000FE72
:1022400001010409210D000040000001050F3900C3
:10225000021810050038B60834A909A0478BFDA064
:10226000768815B665000113011C100500DF60DDDE
:10227000D88945C74C9CD2659D9E648A9F00000307
:1022800006B20012000300004B697772696F757324
:10229000000000004B697772696F757320444655E2
:1022A000000000005C170000701700004C180000D0
:1022B000701700004C1800007C1700008817000001
:1022C0004C180000E6170000FA1700004C18000038
:1022D0002018000030313233343536373839414236
:1022E00043444647484A4B4C4D4E50515253545626
:1022F0005758595A00000000F8B5C046F8BC08BC51
:102300009E467047B5080000F8B5C046F8BC08BC4A
:082310009E4670478D08000095
:1023180000000400000000001503016C6561726E86
:102328002E6B697772696F75732E636F6D0000008D
:1023380000C2010000000800400000000001040085
:102348000200000000000000000000000000000083
:102358000000000000000000000000000000000075
:10236800020057494E55534200000000000000008B
:0C237800000000000000000040420F00C8
:0400000300000800F1
:00000001FF
